{
  "_format": "hh-sol-artifact-1",
  "contractName": "CommerceCore",
  "sourceName": "contracts/core/CommerceCore.sol",
  "abi": [
    {
      "inputs": [
        {
          "internalType": "address",
          "name": "_usdc",
          "type": "address"
        },
        {
          "internalType": "address",
          "name": "_x402",
          "type": "address"
        }
      ],
      "stateMutability": "nonpayable",
      "type": "constructor"
    },
    {
      "inputs": [],
      "name": "AccessControlBadConfirmation",
      "type": "error"
    },
    {
      "inputs": [
        {
          "internalType": "address",
          "name": "account",
          "type": "address"
        },
        {
          "internalType": "bytes32",
          "name": "neededRole",
          "type": "bytes32"
        }
      ],
      "name": "AccessControlUnauthorizedAccount",
      "type": "error"
    },
    {
      "inputs": [],
      "name": "EnforcedPause",
      "type": "error"
    },
    {
      "inputs": [],
      "name": "ExpectedPause",
      "type": "error"
    },
    {
      "inputs": [],
      "name": "ReentrancyGuardReentrantCall",
      "type": "error"
    },
    {
      "inputs": [
        {
          "internalType": "address",
          "name": "token",
          "type": "address"
        }
      ],
      "name": "SafeERC20FailedOperation",
      "type": "error"
    },
    {
      "anonymous": false,
      "inputs": [
        {
          "indexed": false,
          "internalType": "string",
          "name": "key",
          "type": "string"
        },
        {
          "indexed": false,
          "internalType": "uint256",
          "name": "value",
          "type": "uint256"
        }
      ],
      "name": "ConfigUpdated",
      "type": "event"
    },
    {
      "anonymous": false,
      "inputs": [
        {
          "indexed": true,
          "internalType": "uint256",
          "name": "id",
          "type": "uint256"
        }
      ],
      "name": "OrderCompleted",
      "type": "event"
    },
    {
      "anonymous": false,
      "inputs": [
        {
          "indexed": true,
          "internalType": "uint256",
          "name": "id",
          "type": "uint256"
        },
        {
          "indexed": false,
          "internalType": "address",
          "name": "buyer",
          "type": "address"
        },
        {
          "indexed": false,
          "internalType": "address",
          "name": "seller",
          "type": "address"
        }
      ],
      "name": "OrderCreated",
      "type": "event"
    },
    {
      "anonymous": false,
      "inputs": [
        {
          "indexed": false,
          "internalType": "address",
          "name": "account",
          "type": "address"
        }
      ],
      "name": "Paused",
      "type": "event"
    },
    {
      "anonymous": false,
      "inputs": [
        {
          "indexed": false,
          "internalType": "address",
          "name": "newOwner",
          "type": "address"
        }
      ],
      "name": "PlatformOwnerChanged",
      "type": "event"
    },
    {
      "anonymous": false,
      "inputs": [
        {
          "indexed": true,
          "internalType": "uint256",
          "name": "id",
          "type": "uint256"
        }
      ],
      "name": "RefundRequested",
      "type": "event"
    },
    {
      "anonymous": false,
      "inputs": [
        {
          "indexed": true,
          "internalType": "uint256",
          "name": "id",
          "type": "uint256"
        }
      ],
      "name": "Refunded",
      "type": "event"
    },
    {
      "anonymous": false,
      "inputs": [
        {
          "indexed": true,
          "internalType": "bytes32",
          "name": "role",
          "type": "bytes32"
        },
        {
          "indexed": true,
          "internalType": "bytes32",
          "name": "previousAdminRole",
          "type": "bytes32"
        },
        {
          "indexed": true,
          "internalType": "bytes32",
          "name": "newAdminRole",
          "type": "bytes32"
        }
      ],
      "name": "RoleAdminChanged",
      "type": "event"
    },
    {
      "anonymous": false,
      "inputs": [
        {
          "indexed": true,
          "internalType": "bytes32",
          "name": "role",
          "type": "bytes32"
        },
        {
          "indexed": true,
          "internalType": "address",
          "name": "account",
          "type": "address"
        },
        {
          "indexed": true,
          "internalType": "address",
          "name": "sender",
          "type": "address"
        }
      ],
      "name": "RoleGranted",
      "type": "event"
    },
    {
      "anonymous": false,
      "inputs": [
        {
          "indexed": true,
          "internalType": "bytes32",
          "name": "role",
          "type": "bytes32"
        },
        {
          "indexed": true,
          "internalType": "address",
          "name": "account",
          "type": "address"
        },
        {
          "indexed": true,
          "internalType": "address",
          "name": "sender",
          "type": "address"
        }
      ],
      "name": "RoleRevoked",
      "type": "event"
    },
    {
      "anonymous": false,
      "inputs": [
        {
          "indexed": false,
          "internalType": "address",
          "name": "account",
          "type": "address"
        }
      ],
      "name": "Unpaused",
      "type": "event"
    },
    {
      "inputs": [],
      "name": "ADMIN_ROLE",
      "outputs": [
        {
          "internalType": "bytes32",
          "name": "",
          "type": "bytes32"
        }
      ],
      "stateMutability": "view",
      "type": "function"
    },
    {
      "inputs": [],
      "name": "BOT_ROLE",
      "outputs": [
        {
          "internalType": "bytes32",
          "name": "",
          "type": "bytes32"
        }
      ],
      "stateMutability": "view",
      "type": "function"
    },
    {
      "inputs": [],
      "name": "DEFAULT_ADMIN_ROLE",
      "outputs": [
        {
          "internalType": "bytes32",
          "name": "",
          "type": "bytes32"
        }
      ],
      "stateMutability": "view",
      "type": "function"
    },
    {
      "inputs": [],
      "name": "adminApprovalThreshold",
      "outputs": [
        {
          "internalType": "uint256",
          "name": "",
          "type": "uint256"
        }
      ],
      "stateMutability": "view",
      "type": "function"
    },
    {
      "inputs": [
        {
          "internalType": "uint256",
          "name": "orderId",
          "type": "uint256"
        }
      ],
      "name": "adminApprove",
      "outputs": [],
      "stateMutability": "nonpayable",
      "type": "function"
    },
    {
      "inputs": [
        {
          "internalType": "uint256",
          "name": "orderId",
          "type": "uint256"
        }
      ],
      "name": "adminReject",
      "outputs": [],
      "stateMutability": "nonpayable",
      "type": "function"
    },
    {
      "inputs": [
        {
          "internalType": "uint256",
          "name": "orderId",
          "type": "uint256"
        }
      ],
      "name": "confirmDelivery",
      "outputs": [],
      "stateMutability": "nonpayable",
      "type": "function"
    },
    {
      "inputs": [
        {
          "internalType": "address",
          "name": "seller",
          "type": "address"
        },
        {
          "internalType": "uint256",
          "name": "amount",
          "type": "uint256"
        },
        {
          "internalType": "enum CommerceCore.ProductType",
          "name": "productType",
          "type": "uint8"
        }
      ],
      "name": "createOrder",
      "outputs": [],
      "stateMutability": "nonpayable",
      "type": "function"
    },
    {
      "inputs": [],
      "name": "dailyLimit",
      "outputs": [
        {
          "internalType": "uint256",
          "name": "",
          "type": "uint256"
        }
      ],
      "stateMutability": "view",
      "type": "function"
    },
    {
      "inputs": [
        {
          "internalType": "address",
          "name": "",
          "type": "address"
        }
      ],
      "name": "dailySpent",
      "outputs": [
        {
          "internalType": "uint256",
          "name": "",
          "type": "uint256"
        }
      ],
      "stateMutability": "view",
      "type": "function"
    },
    {
      "inputs": [
        {
          "internalType": "bytes32",
          "name": "role",
          "type": "bytes32"
        }
      ],
      "name": "getRoleAdmin",
      "outputs": [
        {
          "internalType": "bytes32",
          "name": "",
          "type": "bytes32"
        }
      ],
      "stateMutability": "view",
      "type": "function"
    },
    {
      "inputs": [
        {
          "internalType": "bytes32",
          "name": "role",
          "type": "bytes32"
        },
        {
          "internalType": "address",
          "name": "account",
          "type": "address"
        }
      ],
      "name": "grantRole",
      "outputs": [],
      "stateMutability": "nonpayable",
      "type": "function"
    },
    {
      "inputs": [
        {
          "internalType": "bytes32",
          "name": "role",
          "type": "bytes32"
        },
        {
          "internalType": "address",
          "name": "account",
          "type": "address"
        }
      ],
      "name": "hasRole",
      "outputs": [
        {
          "internalType": "bool",
          "name": "",
          "type": "bool"
        }
      ],
      "stateMutability": "view",
      "type": "function"
    },
    {
      "inputs": [
        {
          "internalType": "address",
          "name": "",
          "type": "address"
        }
      ],
      "name": "lastReset",
      "outputs": [
        {
          "internalType": "uint256",
          "name": "",
          "type": "uint256"
        }
      ],
      "stateMutability": "view",
      "type": "function"
    },
    {
      "inputs": [],
      "name": "orderCounter",
      "outputs": [
        {
          "internalType": "uint256",
          "name": "",
          "type": "uint256"
        }
      ],
      "stateMutability": "view",
      "type": "function"
    },
    {
      "inputs": [
        {
          "internalType": "uint256",
          "name": "",
          "type": "uint256"
        }
      ],
      "name": "orders",
      "outputs": [
        {
          "internalType": "uint256",
          "name": "id",
          "type": "uint256"
        },
        {
          "internalType": "address",
          "name": "buyer",
          "type": "address"
        },
        {
          "internalType": "address",
          "name": "seller",
          "type": "address"
        },
        {
          "internalType": "uint256",
          "name": "amount",
          "type": "uint256"
        },
        {
          "internalType": "enum CommerceCore.ProductType",
          "name": "productType",
          "type": "uint8"
        },
        {
          "internalType": "enum CommerceCore.OrderStatus",
          "name": "status",
          "type": "uint8"
        },
        {
          "internalType": "uint256",
          "name": "createdAt",
          "type": "uint256"
        },
        {
          "internalType": "uint256",
          "name": "riskScore",
          "type": "uint256"
        }
      ],
      "stateMutability": "view",
      "type": "function"
    },
    {
      "inputs": [],
      "name": "paused",
      "outputs": [
        {
          "internalType": "bool",
          "name": "",
          "type": "bool"
        }
      ],
      "stateMutability": "view",
      "type": "function"
    },
    {
      "inputs": [],
      "name": "platformFeeBps",
      "outputs": [
        {
          "internalType": "uint256",
          "name": "",
          "type": "uint256"
        }
      ],
      "stateMutability": "view",
      "type": "function"
    },
    {
      "inputs": [],
      "name": "platformOwner",
      "outputs": [
        {
          "internalType": "address",
          "name": "",
          "type": "address"
        }
      ],
      "stateMutability": "view",
      "type": "function"
    },
    {
      "inputs": [],
      "name": "refundWindow",
      "outputs": [
        {
          "internalType": "uint256",
          "name": "",
          "type": "uint256"
        }
      ],
      "stateMutability": "view",
      "type": "function"
    },
    {
      "inputs": [
        {
          "internalType": "bytes32",
          "name": "role",
          "type": "bytes32"
        },
        {
          "internalType": "address",
          "name": "callerConfirmation",
          "type": "address"
        }
      ],
      "name": "renounceRole",
      "outputs": [],
      "stateMutability": "nonpayable",
      "type": "function"
    },
    {
      "inputs": [
        {
          "internalType": "uint256",
          "name": "orderId",
          "type": "uint256"
        }
      ],
      "name": "requestRefund",
      "outputs": [],
      "stateMutability": "nonpayable",
      "type": "function"
    },
    {
      "inputs": [
        {
          "internalType": "bytes32",
          "name": "role",
          "type": "bytes32"
        },
        {
          "internalType": "address",
          "name": "account",
          "type": "address"
        }
      ],
      "name": "revokeRole",
      "outputs": [],
      "stateMutability": "nonpayable",
      "type": "function"
    },
    {
      "inputs": [],
      "name": "riskThreshold",
      "outputs": [
        {
          "internalType": "uint256",
          "name": "",
          "type": "uint256"
        }
      ],
      "stateMutability": "view",
      "type": "function"
    },
    {
      "inputs": [
        {
          "internalType": "uint256",
          "name": "value",
          "type": "uint256"
        }
      ],
      "name": "setAdminThreshold",
      "outputs": [],
      "stateMutability": "nonpayable",
      "type": "function"
    },
    {
      "inputs": [
        {
          "internalType": "uint256",
          "name": "value",
          "type": "uint256"
        }
      ],
      "name": "setDailyLimit",
      "outputs": [],
      "stateMutability": "nonpayable",
      "type": "function"
    },
    {
      "inputs": [
        {
          "internalType": "uint256",
          "name": "value",
          "type": "uint256"
        }
      ],
      "name": "setPlatformFee",
      "outputs": [],
      "stateMutability": "nonpayable",
      "type": "function"
    },
    {
      "inputs": [
        {
          "internalType": "address",
          "name": "newOwner",
          "type": "address"
        }
      ],
      "name": "setPlatformOwner",
      "outputs": [],
      "stateMutability": "nonpayable",
      "type": "function"
    },
    {
      "inputs": [
        {
          "internalType": "uint256",
          "name": "value",
          "type": "uint256"
        }
      ],
      "name": "setRefundWindow",
      "outputs": [],
      "stateMutability": "nonpayable",
      "type": "function"
    },
    {
      "inputs": [
        {
          "internalType": "uint256",
          "name": "orderId",
          "type": "uint256"
        },
        {
          "internalType": "uint256",
          "name": "score",
          "type": "uint256"
        }
      ],
      "name": "setRiskScore",
      "outputs": [],
      "stateMutability": "nonpayable",
      "type": "function"
    },
    {
      "inputs": [
        {
          "internalType": "uint256",
          "name": "value",
          "type": "uint256"
        }
      ],
      "name": "setRiskThreshold",
      "outputs": [],
      "stateMutability": "nonpayable",
      "type": "function"
    },
    {
      "inputs": [
        {
          "internalType": "bytes4",
          "name": "interfaceId",
          "type": "bytes4"
        }
      ],
      "name": "supportsInterface",
      "outputs": [
        {
          "internalType": "bool",
          "name": "",
          "type": "bool"
        }
      ],
      "stateMutability": "view",
      "type": "function"
    },
    {
      "inputs": [],
      "name": "usdc",
      "outputs": [
        {
          "internalType": "contract IERC20",
          "name": "",
          "type": "address"
        }
      ],
      "stateMutability": "view",
      "type": "function"
    },
    {
      "inputs": [],
      "name": "x402",
      "outputs": [
        {
          "internalType": "contract IX402",
          "name": "",
          "type": "address"
        }
      ],
      "stateMutability": "view",
      "type": "function"
    }
  ],
  "bytecode": "0x60a06040523480156200001157600080fd5b506040516200400b3803806200400b83398181016040528101906200003791906200042f565b6200004c6000801b33620001e960201b60201c565b506200007f7fa49807205ce4d355092ef5a8a18f56e8913cf4a201fbe287825b095693c2177533620001e960201b60201c565b506001620000a262000096620002ec60201b60201c565b6200031760201b60201c565b60000181905550600073ffffffffffffffffffffffffffffffffffffffff168273ffffffffffffffffffffffffffffffffffffffff16036200011b576040517f08c379a00000000000000000000000000000000000000000000000000000000081526004016200011290620004d7565b60405180910390fd5b8173ffffffffffffffffffffffffffffffffffffffff1660808173ffffffffffffffffffffffffffffffffffffffff168152505080600860016101000a81548173ffffffffffffffffffffffffffffffffffffffff021916908373ffffffffffffffffffffffffffffffffffffffff16021790555033600960006101000a81548173ffffffffffffffffffffffffffffffffffffffff021916908373ffffffffffffffffffffffffffffffffffffffff160217905550620001e16200032160201b60201c565b5050620004f9565b6000620001fd83836200035360201b60201c565b620002e157600160008085815260200190815260200160002060000160008473ffffffffffffffffffffffffffffffffffffffff1673ffffffffffffffffffffffffffffffffffffffff16815260200190815260200160002060006101000a81548160ff0219169083151502179055506200027d620003bd60201b60201c565b73ffffffffffffffffffffffffffffffffffffffff168273ffffffffffffffffffffffffffffffffffffffff16847f2f8788117e7eff1d82e926ec794901d17c78024a50270940304540a733656f0d60405160405180910390a460019050620002e6565b600090505b92915050565b60007f9b779b17422d0df92223018b32b4d1fa46e071723d6817e2486d003becc55f0060001b905090565b6000819050919050565b633b9aca00600181905550633b9aca0060028190555060b8600381905550620151806004819055506046600581905550565b600080600084815260200190815260200160002060000160008373ffffffffffffffffffffffffffffffffffffffff1673ffffffffffffffffffffffffffffffffffffffff16815260200190815260200160002060009054906101000a900460ff16905092915050565b600033905090565b600080fd5b600073ffffffffffffffffffffffffffffffffffffffff82169050919050565b6000620003f782620003ca565b9050919050565b6200040981620003ea565b81146200041557600080fd5b50565b6000815190506200042981620003fe565b92915050565b60008060408385031215620004495762000448620003c5565b5b6000620004598582860162000418565b92505060206200046c8582860162000418565b9150509250929050565b600082825260208201905092915050565b7f496e76616c696420555344430000000000000000000000000000000000000000600082015250565b6000620004bf600c8362000476565b9150620004cc8262000487565b602082019050919050565b60006020820190508181036000830152620004f281620004b0565b9050919050565b608051613ad3620005386000396000818161083501528181610d8a0152818161101101528181611512015281816116c301526122480152613ad36000f3fe608060405234801561001057600080fd5b50600436106102065760003560e01c80638c5d80dd1161011a578063b20d30a9116100ad578063cc5769a61161007c578063cc5769a6146105bc578063d547741f146105d8578063eba4eea9146105f4578063fd84cb9714610610578063ffc8ada61461062c57610206565b8063b20d30a914610548578063b43e6cb414610564578063b789bf5214610582578063bc00720a146105a057610206565b8063a217fddf116100e9578063a217fddf146104b9578063a4b2409e146104d7578063a85c38ef146104f3578063b15037741461052a57610206565b80638c5d80dd1461043357806391915cd91461044f57806391d148541461046d578063a0d4731b1461049d57610206565b80634df8ccb11161019d5780635eebea781161016c5780635eebea781461038d57806367eeba0c146103bd5780637083d1c2146103db57806373643527146103f757806375b238fc1461041557610206565b80634df8ccb11461031957806354daabc3146103375780635af28cf9146103535780635c975abb1461036f57610206565b80632f2ff15d116101d95780632f2ff15d146102a557806336568abe146102c157806337a5d903146102dd5780633e413bee146102fb57610206565b806301ffc9a71461020b57806312e8e2c31461023b57806322dcd13e14610257578063248a9ca314610275575b600080fd5b610225600480360381019061022091906129c9565b61065c565b6040516102329190612a11565b60405180910390f35b61025560048036038101906102509190612a62565b6106d6565b005b61025f61074b565b60405161026c9190612a9e565b60405180910390f35b61028f600480360381019061028a9190612aef565b610751565b60405161029c9190612b2b565b60405180910390f35b6102bf60048036038101906102ba9190612ba4565b610770565b005b6102db60048036038101906102d69190612ba4565b610792565b005b6102e561080d565b6040516102f29190612c43565b60405180910390f35b610303610833565b6040516103109190612c7f565b60405180910390f35b610321610857565b60405161032e9190612ca9565b60405180910390f35b610351600480360381019061034c9190612cc4565b61087d565b005b61036d60048036038101906103689190612a62565b610975565b005b6103776109ea565b6040516103849190612a11565b60405180910390f35b6103a760048036038101906103a29190612cc4565b610a01565b6040516103b49190612a9e565b60405180910390f35b6103c5610a19565b6040516103d29190612a9e565b60405180910390f35b6103f560048036038101906103f09190612a62565b610a1f565b005b6103ff610a94565b60405161040c9190612a9e565b60405180910390f35b61041d610a9a565b60405161042a9190612b2b565b60405180910390f35b61044d60048036038101906104489190612a62565b610abe565b005b610457610b33565b6040516104649190612a9e565b60405180910390f35b61048760048036038101906104829190612ba4565b610b39565b6040516104949190612a11565b60405180910390f35b6104b760048036038101906104b29190612a62565b610ba3565b005b6104c1610dd2565b6040516104ce9190612b2b565b60405180910390f35b6104f160048036038101906104ec9190612a62565b610dd9565b005b61050d60048036038101906105089190612a62565b6110ee565b604051610521989796959493929190612db0565b60405180910390f35b610532611190565b60405161053f9190612b2b565b60405180910390f35b610562600480360381019061055d9190612a62565b6111b4565b005b61056c611229565b6040516105799190612a9e565b60405180910390f35b61058a61122f565b6040516105979190612a9e565b60405180910390f35b6105ba60048036038101906105b59190612a62565b611235565b005b6105d660048036038101906105d19190612e53565b6113cd565b005b6105f260048036038101906105ed9190612ba4565b611872565b005b61060e60048036038101906106099190612ea6565b611894565b005b61062a60048036038101906106259190612a62565b611a05565b005b61064660048036038101906106419190612cc4565b611b4b565b6040516106539190612a9e565b60405180910390f35b60007f7965db0b000000000000000000000000000000000000000000000000000000007bffffffffffffffffffffffffffffffffffffffffffffffffffffffff1916827bffffffffffffffffffffffffffffffffffffffffffffffffffffffff191614806106cf57506106ce82611b63565b5b9050919050565b6107007fa49807205ce4d355092ef5a8a18f56e8913cf4a201fbe287825b095693c2177533610b39565b61073f576040517f08c379a000000000000000000000000000000000000000000000000000000000815260040161073690612f43565b60405180910390fd5b61074881611bcd565b50565b60035481565b6000806000838152602001908152602001600020600101549050919050565b61077982610751565b61078281611c53565b61078c8383611c67565b50505050565b61079a611d58565b73ffffffffffffffffffffffffffffffffffffffff168173ffffffffffffffffffffffffffffffffffffffff16146107fe576040517f6697b23200000000000000000000000000000000000000000000000000000000815260040160405180910390fd5b6108088282611d60565b505050565b600860019054906101000a900473ffffffffffffffffffffffffffffffffffffffff1681565b7f000000000000000000000000000000000000000000000000000000000000000081565b600960009054906101000a900473ffffffffffffffffffffffffffffffffffffffff1681565b6000801b61088a81611c53565b600073ffffffffffffffffffffffffffffffffffffffff168273ffffffffffffffffffffffffffffffffffffffff16036108f9576040517f08c379a00000000000000000000000000000000000000000000000000000000081526004016108f090612faf565b60405180910390fd5b81600960006101000a81548173ffffffffffffffffffffffffffffffffffffffff021916908373ffffffffffffffffffffffffffffffffffffffff1602179055507f566b6c1fed1ac5350406cb71edc676f6dd4278668bd7531bbe06e410f9a6924f826040516109699190612ca9565b60405180910390a15050565b61099f7fa49807205ce4d355092ef5a8a18f56e8913cf4a201fbe287825b095693c2177533610b39565b6109de576040517f08c379a00000000000000000000000000000000000000000000000000000000081526004016109d590612f43565b60405180910390fd5b6109e781611e52565b50565b6000600860009054906101000a900460ff16905090565b60076020528060005260406000206000915090505481565b60015481565b610a497fa49807205ce4d355092ef5a8a18f56e8913cf4a201fbe287825b095693c2177533610b39565b610a88576040517f08c379a0000000000000000000000000000000000000000000000000000000008152600401610a7f90612f43565b60405180910390fd5b610a9181611e93565b50565b60045481565b7fa49807205ce4d355092ef5a8a18f56e8913cf4a201fbe287825b095693c2177581565b610ae87fa49807205ce4d355092ef5a8a18f56e8913cf4a201fbe287825b095693c2177533610b39565b610b27576040517f08c379a0000000000000000000000000000000000000000000000000000000008152600401610b1e90612f43565b60405180910390fd5b610b3081611f18565b50565b60025481565b600080600084815260200190815260200160002060000160008373ffffffffffffffffffffffffffffffffffffffff1673ffffffffffffffffffffffffffffffffffffffff16815260200190815260200160002060009054906101000a900460ff16905092915050565b610bcd7fa49807205ce4d355092ef5a8a18f56e8913cf4a201fbe287825b095693c2177533610b39565b610c0c576040517f08c379a0000000000000000000000000000000000000000000000000000000008152600401610c0390612f43565b60405180910390fd5b6000600b60008381526020019081526020016000209050600073ffffffffffffffffffffffffffffffffffffffff168160010160009054906101000a900473ffffffffffffffffffffffffffffffffffffffff1673ffffffffffffffffffffffffffffffffffffffff1603610cb6576040517f08c379a0000000000000000000000000000000000000000000000000000000008152600401610cad9061301b565b60405180910390fd5b60006005811115610cca57610cc9612cf1565b5b8160040160019054906101000a900460ff166005811115610cee57610ced612cf1565b5b14610d2e576040517f08c379a0000000000000000000000000000000000000000000000000000000008152600401610d2590613087565b60405180910390fd5b60058160040160016101000a81548160ff02191690836005811115610d5657610d55612cf1565b5b0217905550610dce8160010160009054906101000a900473ffffffffffffffffffffffffffffffffffffffff1682600301547f000000000000000000000000000000000000000000000000000000000000000073ffffffffffffffffffffffffffffffffffffffff16611f9e9092919063ffffffff16565b5050565b6000801b81565b610de1611ff1565b610de9612014565b6000600b60008381526020019081526020016000209050600073ffffffffffffffffffffffffffffffffffffffff168160010160009054906101000a900473ffffffffffffffffffffffffffffffffffffffff1673ffffffffffffffffffffffffffffffffffffffff1603610e93576040517f08c379a0000000000000000000000000000000000000000000000000000000008152600401610e8a9061301b565b60405180910390fd5b8060010160009054906101000a900473ffffffffffffffffffffffffffffffffffffffff1673ffffffffffffffffffffffffffffffffffffffff163373ffffffffffffffffffffffffffffffffffffffff1614610f25576040517f08c379a0000000000000000000000000000000000000000000000000000000008152600401610f1c906130f3565b60405180910390fd5b60006005811115610f3957610f38612cf1565b5b8160040160019054906101000a900460ff166005811115610f5d57610f5c612cf1565b5b14610f9d576040517f08c379a0000000000000000000000000000000000000000000000000000000008152600401610f949061315f565b60405180910390fd5b6004548160050154610faf91906131ae565b42116110875760048160040160016101000a81548160ff02191690836005811115610fdd57610fdc612cf1565b5b02179055506110558160010160009054906101000a900473ffffffffffffffffffffffffffffffffffffffff1682600301547f000000000000000000000000000000000000000000000000000000000000000073ffffffffffffffffffffffffffffffffffffffff16611f9e9092919063ffffffff16565b817f3d2a04f53164bedf9a8a46353305d6b2d2261410406df3b41f99ce6489dc003c60405160405180910390a26110e2565b60018160040160016101000a81548160ff021916908360058111156110af576110ae612cf1565b5b0217905550817f431b80eca5334464928f696b9231ecf0987e4f1a105f7f560f22514a2fb93dd760405160405180910390a25b506110eb612055565b50565b600b6020528060005260406000206000915090508060000154908060010160009054906101000a900473ffffffffffffffffffffffffffffffffffffffff16908060020160009054906101000a900473ffffffffffffffffffffffffffffffffffffffff16908060030154908060040160009054906101000a900460ff16908060040160019054906101000a900460ff16908060050154908060060154905088565b7f6d5c9827c1f410bbb61d3b2a0a34b6b30492d9a1fd38588edca7ec4562ab9c9b81565b6111de7fa49807205ce4d355092ef5a8a18f56e8913cf4a201fbe287825b095693c2177533610b39565b61121d576040517f08c379a000000000000000000000000000000000000000000000000000000000815260040161121490612f43565b60405180910390fd5b61122681612070565b50565b60055481565b600a5481565b61125f7fa49807205ce4d355092ef5a8a18f56e8913cf4a201fbe287825b095693c2177533610b39565b61129e576040517f08c379a000000000000000000000000000000000000000000000000000000000815260040161129590612f43565b60405180910390fd5b6000600b60008381526020019081526020016000209050600073ffffffffffffffffffffffffffffffffffffffff168160010160009054906101000a900473ffffffffffffffffffffffffffffffffffffffff1673ffffffffffffffffffffffffffffffffffffffff1603611348576040517f08c379a000000000000000000000000000000000000000000000000000000000815260040161133f9061301b565b60405180910390fd5b6000600581111561135c5761135b612cf1565b5b8160040160019054906101000a900460ff1660058111156113805761137f612cf1565b5b146113c0576040517f08c379a00000000000000000000000000000000000000000000000000000000081526004016113b790613087565b60405180910390fd5b6113c9826120f4565b5050565b6113d5611ff1565b6113dd612014565b600073ffffffffffffffffffffffffffffffffffffffff168373ffffffffffffffffffffffffffffffffffffffff160361144c576040517f08c379a00000000000000000000000000000000000000000000000000000000081526004016114439061322e565b60405180910390fd5b3373ffffffffffffffffffffffffffffffffffffffff168373ffffffffffffffffffffffffffffffffffffffff16036114ba576040517f08c379a00000000000000000000000000000000000000000000000000000000081526004016114b19061329a565b60405180910390fd5b600082116114fd576040517f08c379a00000000000000000000000000000000000000000000000000000000081526004016114f490613306565b60405180910390fd5b61150a338360015461241d565b6115573330847f000000000000000000000000000000000000000000000000000000000000000073ffffffffffffffffffffffffffffffffffffffff166125e3909392919063ffffffff16565b600a600081548092919061156a90613326565b91905055506000600b6000600a5481526020019081526020016000209050600a548160000181905550338160010160006101000a81548173ffffffffffffffffffffffffffffffffffffffff021916908373ffffffffffffffffffffffffffffffffffffffff160217905550838160020160006101000a81548173ffffffffffffffffffffffffffffffffffffffff021916908373ffffffffffffffffffffffffffffffffffffffff160217905550828160030181905550818160040160006101000a81548160ff0219169083600181111561164957611648612cf1565b5b02179055504281600501819055506000600181111561166b5761166a612cf1565b5b82600181111561167e5761167d612cf1565b5b14801561168c575060025483105b156117fa5760038160040160016101000a81548160ff021916908360058111156116b9576116b8612cf1565b5b021790555061170f7f0000000000000000000000000000000000000000000000000000000000000000600960009054906101000a900473ffffffffffffffffffffffffffffffffffffffff168686600354612638565b600073ffffffffffffffffffffffffffffffffffffffff16600860019054906101000a900473ffffffffffffffffffffffffffffffffffffffff1673ffffffffffffffffffffffffffffffffffffffff16146117f557600860019054906101000a900473ffffffffffffffffffffffffffffffffffffffff1673ffffffffffffffffffffffffffffffffffffffff166357c0e13c600a543387876040518563ffffffff1660e01b81526004016117c8949392919061336e565b600060405180830381600087803b1580156117e257600080fd5b505af19250505080156117f3575060015b505b611828565b60008160040160016101000a81548160ff0219169083600581111561182257611821612cf1565b5b02179055505b600a547fd4e0aaf5be9b8773c644dfebba8b63f878965712ad8589d85ca4bc9d1b671e2c338660405161185c9291906133b3565b60405180910390a25061186d612055565b505050565b61187b82610751565b61188481611c53565b61188e8383611d60565b50505050565b6118be7f6d5c9827c1f410bbb61d3b2a0a34b6b30492d9a1fd38588edca7ec4562ab9c9b33610b39565b6118fd576040517f08c379a00000000000000000000000000000000000000000000000000000000081526004016118f490613428565b60405180910390fd5b6064811115611941576040517f08c379a000000000000000000000000000000000000000000000000000000000815260040161193890613494565b60405180910390fd5b600073ffffffffffffffffffffffffffffffffffffffff16600b600084815260200190815260200160002060010160009054906101000a900473ffffffffffffffffffffffffffffffffffffffff1673ffffffffffffffffffffffffffffffffffffffff16036119e6576040517f08c379a00000000000000000000000000000000000000000000000000000000081526004016119dd9061301b565b60405180910390fd5b80600b6000848152602001908152602001600020600601819055505050565b611a0d611ff1565b611a15612014565b6000600b600083815260200190815260200160002090503373ffffffffffffffffffffffffffffffffffffffff168160010160009054906101000a900473ffffffffffffffffffffffffffffffffffffffff1673ffffffffffffffffffffffffffffffffffffffff1614611abe576040517f08c379a0000000000000000000000000000000000000000000000000000000008152600401611ab5906130f3565b60405180910390fd5b60006005811115611ad257611ad1612cf1565b5b8160040160019054906101000a900460ff166005811115611af657611af5612cf1565b5b14611b36576040517f08c379a0000000000000000000000000000000000000000000000000000000008152600401611b2d90613087565b60405180910390fd5b611b3f826120f4565b50611b48612055565b50565b60066020528060005260406000206000915090505481565b60007f01ffc9a7000000000000000000000000000000000000000000000000000000007bffffffffffffffffffffffffffffffffffffffffffffffffffffffff1916827bffffffffffffffffffffffffffffffffffffffffffffffffffffffff1916149050919050565b6103e8811115611c12576040517f08c379a0000000000000000000000000000000000000000000000000000000008152600401611c0990613500565b60405180910390fd5b806003819055507f12c9dccd129ff783f1c8228eacdfa8e334ddecb7ec5c9a79ec662a4aed3d012a81604051611c48919061356c565b60405180910390a150565b611c6481611c5f611d58565b6127a2565b50565b6000611c738383610b39565b611d4d57600160008085815260200190815260200160002060000160008473ffffffffffffffffffffffffffffffffffffffff1673ffffffffffffffffffffffffffffffffffffffff16815260200190815260200160002060006101000a81548160ff021916908315150217905550611cea611d58565b73ffffffffffffffffffffffffffffffffffffffff168273ffffffffffffffffffffffffffffffffffffffff16847f2f8788117e7eff1d82e926ec794901d17c78024a50270940304540a733656f0d60405160405180910390a460019050611d52565b600090505b92915050565b600033905090565b6000611d6c8383610b39565b15611e4757600080600085815260200190815260200160002060000160008473ffffffffffffffffffffffffffffffffffffffff1673ffffffffffffffffffffffffffffffffffffffff16815260200190815260200160002060006101000a81548160ff021916908315150217905550611de4611d58565b73ffffffffffffffffffffffffffffffffffffffff168273ffffffffffffffffffffffffffffffffffffffff16847ff6391f5c32d9c69d2a47ea670b442974b53935d1edc7fd64eb21e047a839171b60405160405180910390a460019050611e4c565b600090505b92915050565b806002819055507f12c9dccd129ff783f1c8228eacdfa8e334ddecb7ec5c9a79ec662a4aed3d012a81604051611e8891906135e6565b60405180910390a150565b6064811115611ed7576040517f08c379a0000000000000000000000000000000000000000000000000000000008152600401611ece90613660565b60405180910390fd5b806005819055507f12c9dccd129ff783f1c8228eacdfa8e334ddecb7ec5c9a79ec662a4aed3d012a81604051611f0d91906136cc565b60405180910390a150565b610e10811015611f5d576040517f08c379a0000000000000000000000000000000000000000000000000000000008152600401611f5490613746565b60405180910390fd5b806004819055507f12c9dccd129ff783f1c8228eacdfa8e334ddecb7ec5c9a79ec662a4aed3d012a81604051611f9391906137b2565b60405180910390a150565b611fab83838360016127f3565b611fec57826040517f5274afe7000000000000000000000000000000000000000000000000000000008152600401611fe39190612ca9565b60405180910390fd5b505050565b611ff961285d565b600261200b61200661289e565b6128c9565b60000181905550565b61201c6109ea565b15612053576040517fd93c066500000000000000000000000000000000000000000000000000000000815260040160405180910390fd5b565b600161206761206261289e565b6128c9565b60000181905550565b600081116120b3576040517f08c379a00000000000000000000000000000000000000000000000000000000081526004016120aa9061382c565b60405180910390fd5b806001819055507f12c9dccd129ff783f1c8228eacdfa8e334ddecb7ec5c9a79ec662a4aed3d012a816040516120e99190613898565b60405180910390a150565b6000600b60008381526020019081526020016000209050600073ffffffffffffffffffffffffffffffffffffffff168160010160009054906101000a900473ffffffffffffffffffffffffffffffffffffffff1673ffffffffffffffffffffffffffffffffffffffff160361219e576040517f08c379a00000000000000000000000000000000000000000000000000000000081526004016121959061301b565b60405180910390fd5b600060058111156121b2576121b1612cf1565b5b8160040160019054906101000a900460ff1660058111156121d6576121d5612cf1565b5b14612216576040517f08c379a000000000000000000000000000000000000000000000000000000000815260040161220d9061315f565b60405180910390fd5b60038160040160016101000a81548160ff0219169083600581111561223e5761223d612cf1565b5b02179055506122bc7f0000000000000000000000000000000000000000000000000000000000000000600960009054906101000a900473ffffffffffffffffffffffffffffffffffffffff168360020160009054906101000a900473ffffffffffffffffffffffffffffffffffffffff168460030154600354612638565b600073ffffffffffffffffffffffffffffffffffffffff16600860019054906101000a900473ffffffffffffffffffffffffffffffffffffffff1673ffffffffffffffffffffffffffffffffffffffff16146123ec57600860019054906101000a900473ffffffffffffffffffffffffffffffffffffffff1673ffffffffffffffffffffffffffffffffffffffff166357c0e13c838360010160009054906101000a900473ffffffffffffffffffffffffffffffffffffffff168460020160009054906101000a900473ffffffffffffffffffffffffffffffffffffffff1685600301546040518563ffffffff1660e01b81526004016123bf949392919061336e565b600060405180830381600087803b1580156123d957600080fd5b505af19250505080156123ea575060015b505b817f02a7d4d9472af7118644884b9a0ee443540c0027e938dd0aa35be8ecbe946c0a60405160405180910390a25050565b62015180600760008573ffffffffffffffffffffffffffffffffffffffff1673ffffffffffffffffffffffffffffffffffffffff1681526020019081526020016000205461246b91906131ae565b42106124fb576000600660008573ffffffffffffffffffffffffffffffffffffffff1673ffffffffffffffffffffffffffffffffffffffff1681526020019081526020016000208190555042600760008573ffffffffffffffffffffffffffffffffffffffff1673ffffffffffffffffffffffffffffffffffffffff168152602001908152602001600020819055505b8082600660008673ffffffffffffffffffffffffffffffffffffffff1673ffffffffffffffffffffffffffffffffffffffff1681526020019081526020016000205461254791906131ae565b1115612588576040517f08c379a000000000000000000000000000000000000000000000000000000000815260040161257f90613912565b60405180910390fd5b81600660008573ffffffffffffffffffffffffffffffffffffffff1673ffffffffffffffffffffffffffffffffffffffff16815260200190815260200160002060008282546125d791906131ae565b92505081905550505050565b6125f18484848460016128d3565b61263257836040517f5274afe70000000000000000000000000000000000000000000000000000000081526004016126299190612ca9565b60405180910390fd5b50505050565b600073ffffffffffffffffffffffffffffffffffffffff168473ffffffffffffffffffffffffffffffffffffffff16036126a7576040517f08c379a000000000000000000000000000000000000000000000000000000000815260040161269e9061397e565b60405180910390fd5b600073ffffffffffffffffffffffffffffffffffffffff168373ffffffffffffffffffffffffffffffffffffffff1603612716576040517f08c379a000000000000000000000000000000000000000000000000000000000815260040161270d9061322e565b60405180910390fd5b60006127108284612727919061399e565b6127319190613a0f565b9050600081846127419190613a40565b905061276e86838973ffffffffffffffffffffffffffffffffffffffff16611f9e9092919063ffffffff16565b61279985828973ffffffffffffffffffffffffffffffffffffffff16611f9e9092919063ffffffff16565b50505050505050565b6127ac8282610b39565b6127ef5780826040517fe2517d3f0000000000000000000000000000000000000000000000000000000081526004016127e6929190613a74565b60405180910390fd5b5050565b60008063a9059cbb60e01b90506040518160005260001960601c8616600452846024526020600060446000808b5af19250600160005114831661284f578383151615612842573d6000823e3d81fd5b6000873b113d1516831692505b806040525050949350505050565b61286561294e565b1561289c576040517f3ee5aeb500000000000000000000000000000000000000000000000000000000815260040160405180910390fd5b565b60007f9b779b17422d0df92223018b32b4d1fa46e071723d6817e2486d003becc55f0060001b905090565b6000819050919050565b6000806323b872dd60e01b90506040518160005260001960601c871660045260001960601c8616602452846044526020600060646000808c5af19250600160005114831661293a57838315161561292d573d6000823e3d81fd5b6000883b113d1516831692505b806040526000606052505095945050505050565b6000600261296261295d61289e565b6128c9565b6000015414905090565b600080fd5b60007fffffffff0000000000000000000000000000000000000000000000000000000082169050919050565b6129a681612971565b81146129b157600080fd5b50565b6000813590506129c38161299d565b92915050565b6000602082840312156129df576129de61296c565b5b60006129ed848285016129b4565b91505092915050565b60008115159050919050565b612a0b816129f6565b82525050565b6000602082019050612a266000830184612a02565b92915050565b6000819050919050565b612a3f81612a2c565b8114612a4a57600080fd5b50565b600081359050612a5c81612a36565b92915050565b600060208284031215612a7857612a7761296c565b5b6000612a8684828501612a4d565b91505092915050565b612a9881612a2c565b82525050565b6000602082019050612ab36000830184612a8f565b92915050565b6000819050919050565b612acc81612ab9565b8114612ad757600080fd5b50565b600081359050612ae981612ac3565b92915050565b600060208284031215612b0557612b0461296c565b5b6000612b1384828501612ada565b91505092915050565b612b2581612ab9565b82525050565b6000602082019050612b406000830184612b1c565b92915050565b600073ffffffffffffffffffffffffffffffffffffffff82169050919050565b6000612b7182612b46565b9050919050565b612b8181612b66565b8114612b8c57600080fd5b50565b600081359050612b9e81612b78565b92915050565b60008060408385031215612bbb57612bba61296c565b5b6000612bc985828601612ada565b9250506020612bda85828601612b8f565b9150509250929050565b6000819050919050565b6000612c09612c04612bff84612b46565b612be4565b612b46565b9050919050565b6000612c1b82612bee565b9050919050565b6000612c2d82612c10565b9050919050565b612c3d81612c22565b82525050565b6000602082019050612c586000830184612c34565b92915050565b6000612c6982612c10565b9050919050565b612c7981612c5e565b82525050565b6000602082019050612c946000830184612c70565b92915050565b612ca381612b66565b82525050565b6000602082019050612cbe6000830184612c9a565b92915050565b600060208284031215612cda57612cd961296c565b5b6000612ce884828501612b8f565b91505092915050565b7f4e487b7100000000000000000000000000000000000000000000000000000000600052602160045260246000fd5b60028110612d3157612d30612cf1565b5b50565b6000819050612d4282612d20565b919050565b6000612d5282612d34565b9050919050565b612d6281612d47565b82525050565b60068110612d7957612d78612cf1565b5b50565b6000819050612d8a82612d68565b919050565b6000612d9a82612d7c565b9050919050565b612daa81612d8f565b82525050565b600061010082019050612dc6600083018b612a8f565b612dd3602083018a612c9a565b612de06040830189612c9a565b612ded6060830188612a8f565b612dfa6080830187612d59565b612e0760a0830186612da1565b612e1460c0830185612a8f565b612e2160e0830184612a8f565b9998505050505050505050565b60028110612e3b57600080fd5b50565b600081359050612e4d81612e2e565b92915050565b600080600060608486031215612e6c57612e6b61296c565b5b6000612e7a86828701612b8f565b9350506020612e8b86828701612a4d565b9250506040612e9c86828701612e3e565b9150509250925092565b60008060408385031215612ebd57612ebc61296c565b5b6000612ecb85828601612a4d565b9250506020612edc85828601612a4d565b9150509250929050565b600082825260208201905092915050565b7f4e6f742061646d696e0000000000000000000000000000000000000000000000600082015250565b6000612f2d600983612ee6565b9150612f3882612ef7565b602082019050919050565b60006020820190508181036000830152612f5c81612f20565b9050919050565b7f496e76616c696420616464726573730000000000000000000000000000000000600082015250565b6000612f99600f83612ee6565b9150612fa482612f63565b602082019050919050565b60006020820190508181036000830152612fc881612f8c565b9050919050565b7f496e76616c6964206f7264657200000000000000000000000000000000000000600082015250565b6000613005600d83612ee6565b915061301082612fcf565b602082019050919050565b6000602082019050818103600083015261303481612ff8565b9050919050565b7f496e76616c696400000000000000000000000000000000000000000000000000600082015250565b6000613071600783612ee6565b915061307c8261303b565b602082019050919050565b600060208201905081810360008301526130a081613064565b9050919050565b7f4e6f742062757965720000000000000000000000000000000000000000000000600082015250565b60006130dd600983612ee6565b91506130e8826130a7565b602082019050919050565b6000602082019050818103600083015261310c816130d0565b9050919050565b7f496e76616c696420737461747573000000000000000000000000000000000000600082015250565b6000613149600e83612ee6565b915061315482613113565b602082019050919050565b600060208201905081810360008301526131788161313c565b9050919050565b7f4e487b7100000000000000000000000000000000000000000000000000000000600052601160045260246000fd5b60006131b982612a2c565b91506131c483612a2c565b92508282019050808211156131dc576131db61317f565b5b92915050565b7f496e76616c69642073656c6c6572000000000000000000000000000000000000600082015250565b6000613218600e83612ee6565b9150613223826131e2565b602082019050919050565b600060208201905081810360008301526132478161320b565b9050919050565b7f53656c6620747261646500000000000000000000000000000000000000000000600082015250565b6000613284600a83612ee6565b915061328f8261324e565b602082019050919050565b600060208201905081810360008301526132b381613277565b9050919050565b7f496e76616c696420616d6f756e74000000000000000000000000000000000000600082015250565b60006132f0600e83612ee6565b91506132fb826132ba565b602082019050919050565b6000602082019050818103600083015261331f816132e3565b9050919050565b600061333182612a2c565b91507fffffffffffffffffffffffffffffffffffffffffffffffffffffffffffffffff82036133635761336261317f565b5b600182019050919050565b60006080820190506133836000830187612a8f565b6133906020830186612c9a565b61339d6040830185612c9a565b6133aa6060830184612a8f565b95945050505050565b60006040820190506133c86000830185612c9a565b6133d56020830184612c9a565b9392505050565b7f4e6f7420626f7400000000000000000000000000000000000000000000000000600082015250565b6000613412600783612ee6565b915061341d826133dc565b602082019050919050565b6000602082019050818103600083015261344181613405565b9050919050565b7f496e76616c69642073636f726500000000000000000000000000000000000000600082015250565b600061347e600d83612ee6565b915061348982613448565b602082019050919050565b600060208201905081810360008301526134ad81613471565b9050919050565b7f46656520746f6f20686967680000000000000000000000000000000000000000600082015250565b60006134ea600c83612ee6565b91506134f5826134b4565b602082019050919050565b60006020820190508181036000830152613519816134dd565b9050919050565b7f504c4154464f524d5f4645450000000000000000000000000000000000000000600082015250565b6000613556600c83612ee6565b915061356182613520565b602082019050919050565b6000604082019050818103600083015261358581613549565b90506135946020830184612a8f565b92915050565b7f41444d494e5f5448524553484f4c440000000000000000000000000000000000600082015250565b60006135d0600f83612ee6565b91506135db8261359a565b602082019050919050565b600060408201905081810360008301526135ff816135c3565b905061360e6020830184612a8f565b92915050565b7f496e76616c6964207269736b0000000000000000000000000000000000000000600082015250565b600061364a600c83612ee6565b915061365582613614565b602082019050919050565b600060208201905081810360008301526136798161363d565b9050919050565b7f5249534b5f5448524553484f4c44000000000000000000000000000000000000600082015250565b60006136b6600e83612ee6565b91506136c182613680565b602082019050919050565b600060408201905081810360008301526136e5816136a9565b90506136f46020830184612a8f565b92915050565b7f546f6f20736d616c6c0000000000000000000000000000000000000000000000600082015250565b6000613730600983612ee6565b915061373b826136fa565b602082019050919050565b6000602082019050818103600083015261375f81613723565b9050919050565b7f524546554e445f57494e444f5700000000000000000000000000000000000000600082015250565b600061379c600d83612ee6565b91506137a782613766565b602082019050919050565b600060408201905081810360008301526137cb8161378f565b90506137da6020830184612a8f565b92915050565b7f496e76616c6964206c696d697400000000000000000000000000000000000000600082015250565b6000613816600d83612ee6565b9150613821826137e0565b602082019050919050565b6000602082019050818103600083015261384581613809565b9050919050565b7f4441494c595f4c494d4954000000000000000000000000000000000000000000600082015250565b6000613882600b83612ee6565b915061388d8261384c565b602082019050919050565b600060408201905081810360008301526138b181613875565b90506138c06020830184612a8f565b92915050565b7f4461696c79206c696d6974206578636565646564000000000000000000000000600082015250565b60006138fc601483612ee6565b9150613907826138c6565b602082019050919050565b6000602082019050818103600083015261392b816138ef565b9050919050565b7f496e76616c6964206f776e657200000000000000000000000000000000000000600082015250565b6000613968600d83612ee6565b915061397382613932565b602082019050919050565b600060208201905081810360008301526139978161395b565b9050919050565b60006139a982612a2c565b91506139b483612a2c565b92508282026139c281612a2c565b915082820484148315176139d9576139d861317f565b5b5092915050565b7f4e487b7100000000000000000000000000000000000000000000000000000000600052601260045260246000fd5b6000613a1a82612a2c565b9150613a2583612a2c565b925082613a3557613a346139e0565b5b828204905092915050565b6000613a4b82612a2c565b9150613a5683612a2c565b9250828203905081811115613a6e57613a6d61317f565b5b92915050565b6000604082019050613a896000830185612c9a565b613a966020830184612b1c565b939250505056fea26469706673582212201fe80f3e2ae7eb6fa3ea916f81f3abb9b2acab9e60588db6ec7ce1bccab0519064736f6c63430008140033",
  "linkReferences": {},
  "deployedLinkReferences": {}
}